:020000041000EA
:1000000000B5324B212058609868022188439860DF
:10001000D860186158612E4B002199600221596106
:100020000121F02299502B49196001219960352056
:1000300000F044F80222904214D00621196600F024
:1000400034F8196E01211966002018661A6600F04E
:100050002CF8196E196E196E052000F02FF8012189
:100060000842F9D1002199601B49196000215960AB
:100070001A491B48016001219960EB211966A021F2
:10008000196600F012F800219960164914480160C1
:100090000121996001BC002800D000471248134993
:1000A000086003C880F30888084703B5996A0420EC
:1000B0000142FBD001200142F8D103BD02B5186610
:1000C0001866FFF7F2FF186E186E02BD00000240BE
:1000D000000000180000070000035F00212200005C
:1000E000F4000018222000A00001001008ED00E03C
:1000F00000000000000000000000000074B24E7A12
:1001000000200420F7010010C3010010C5010010F9
:10011000C1010010C1010010C1010010C101001097
:10012000C1010010C1010010C1010010C701001081
:10013000C1010010C1010010C9010010CB01001065
:10014000CD010010CD010010CD010010CD01001037
:10015000CD010010CD010010CD010010CD01001027
:10016000CD010010CD010010CD010010CD01001017
:10017000CD010010CD010010CD010010CD01001007
:10018000CD010010CD010010CD010010CD010010F7
:10019000CD010010CD010010CD010010CD010010E7
:1001A000CD010010CD010010CD010010CD010010D7
:1001B000CD010010CD010010CD010010CD010010C7
:1001C00000BE00BE00BE00BE00BE00BEEFF3058054
:1001D000103800BEF2EB8871E0FE031004FF03103C
:1001E0003402001090A31AE700201F49086006C8D7
:1001F00081F3088810471D48006800282FD10DA4FE
:100200000ECC002902D000F012F8F9E71849194A7B
:10021000002000E001C19142FCD1174988471749ED
:1002200088471749884700BEFDE701C901C29A42C5
:10023000FBD3704704FF0310C000002020060020FD
:10024000640404100000042000000420640404106E
:10025000001004200010042000000000704709482E
:1002600003F020FA0047000008ED00E0000000D095
:1002700020060020841400208D1F001005030010AC
:10028000812000105756000006005250ABB3605357
:10029000D885001006005250861C0302E885001025
:1002A000060052505422A29DF485001005005250C1
:1002B000DE65F46864040410F8B5C04610B5064C59
:1002C0002378002B07D1054B002B02D0044800E017
:1002D00000BF0123237010BD68080020000000004B
:1002E000D8820010044B10B5002B03D003490448FA
:1002F00000E000BF10BDC046000000006C080020F8
:10030000D8820010F8B504F00DF8022000F0D6F8FD
:10031000D024032000F0D2F80423240663620433BF
:10032000636204F001F900281AD10426082500F0C0
:1003300021F80E4F0121002004F0E6F866616420E8
:10034000A56100F0ABFF0021A6610020656104F00B
:10035000DBF8642000F0A2FF380003F035FFE9E786
:10036000034803F031FF01204042F8BDEC82001049
:10037000D882001010B504F09DF810BD094A830022
:1003800094464022634410B51C68C0006240C024FB
:1003900014408022520113431C60034B9C4660446E
:1003A000416010BD04C00140004001400A4B800084
:1003B0009C4604236044002901D00C230821002A14
:1003C00000D10B00026853400C221A4080235B01CD
:1003D000184302607047C04604C00140084B8000CB
:1003E0009C466044002905D080239B0118430223CA
:1003F00003607047C0239B01184302230360F8E7A2
:1004000004C00140D0231B061B6830B50500581EF0
:1004100083410F485C428446072030232840234014
:100420008000EC08814020000A4D3C30634480008D
:10043000A40041511B19002A04D0802292011343C9
:10044000196030BDC022920113431960F9E7C0461C
:100450000041014000400140D023F0B5C6460400F1
:100460001B0698461B680C4F9B00F8580D001600A1
:1004700000B5044209D1044332002900FC500D208C
:1004800000F04AF980BCB846F0BD01F015FE4346C5
:100490001B689B00F858EEE74813002010B50400D5
:1004A0000D2000F02DFAD0231B061B6802499B008B
:1004B0005A58A2435A5010BD481300200123D0229D
:1004C0008340120693629361094A83009446402256
:1004D00063441968C0004A40C02111408022520183
:1004E00013431960034B9C460523604443607047E7
:1004F00004C0014000400140024B18688007C00F53
:100500007047C04600C00640EFF3108072B6034A41
:100510001368002BFCD0BFF35F8F70472C0100D015
:10052000BFF35F8F0022024B1A6080F31088704780
:100530002C0100D070B5EFF3108C72B60D4D2B6806
:10054000002BFCD0BFF35F8F0724CB08C618C05C1C
:1005500001230C40A3401C000440034207D1034385
:100560003370BFF35F8F2C608CF3108870BD100068
:1005700001F08AFD2C0100D0F8B54746CE468846EA
:1005800080B5EFF3108C72B6214D2C68002CFCD096
:10059000BFF35F8F9A422CD8D4080727055D061950
:1005A00001241740BC402C421FD007210127894657
:1005B00009E0D408055D06194C4639001440A140F5
:1005C0000C00294211D001329342F2D20120404264
:1005D000BFF35F8F00220E4B1A608CF31088002847
:1005E0000FDBC0BCB946B046F8BD2C4310003470D8
:1005F000EEE7BFF35F8F00232B608CF310880120A0
:1006000040424346002BECD0089801F03DFDC04627
:100610002C0100D030B5EFF3108C72B60A4C236871
:10062000002BFCD0BFF35F8F07230122CD081940B8
:100630008A40435D93434355BFF35F8F002323609C
:100640008CF3108830BDC0462C0100D00021044B33
:10065000044ABFF35F8F02C39342FAD17047C0468A
:10066000000100D0800100D0044A1078431CDBB2A6
:10067000172B00D9102313707047C04620050020A7
:1006800001238340002904D0034A1360034A136006
:100690007047034A1360FBE780E200E000E100E0FE
:1006A00080E100E001238340014A13607047C046A7
:1006B00000E200E0024B10309B688000C058704799
:1006C00000ED00E070B50D00EFF3108672B60F4A32
:1006D0001368002BFCD0BFF35F8F0D4B10309B686D
:1006E00084001B590B4A934203D09D4201D001F074
:1006F000E3FC074B9B681D51BFF35F8FBFF35F8F18
:100700000022024B1A6086F3108870BD240100D0CD
:1007100000ED00E0CD010010F0B557464E46DE4634
:100720004546E0B585B0060002911700EFF3108B47
:1007300072B6674A1368002BFCD0BFF35F8F0025A9
:10074000644B5D579A46002D00DAA4E06B00624CC2
:1007500003935B199B009846A146C1444B46524601
:100760009B79103613705D4BB2009B6801929958CB
:100770000B1B2F2B34D95A4B994200D0A4E0039B7A
:10078000584A9C46584B6544AD0063534346023378
:100790006519E418554B0121043B1B1B1B055B0D20
:1007A00013436B80524BEF71AB80FF23AB71029B05
:1007B000AB604B460B431900484B019A9B6899501C
:1007C000BFF35F8FBFF35F8F0022414B1A608BF343
:1007D000108805B0F0BCBB46B246A946A046F0BDA5
:1007E00001200A008243D379BB422FD845464E46AA
:1007F000130040491B1B5B415943090D3A4B63539E
:100800003A4B02356519043B5B1B1B05354D5B0DEF
:100810002B4373800426B446E0444444131F1B1B3F
:100820004C46A17102991B05A16049465B0D2B4303
:10083000A380314BE77101431360BDE75800C01836
:1008400080002018C679BE422BD902000623D35659
:10085000002BF3DA101D8246284880460426764293
:10086000B446E14450464E46361A3005400D8246A5
:1008700056461C48957106439680039A94466544F3
:100880001D4AAD00641922604246A371029BA280FA
:10089000E771A36090E701F00FFC002553465D5718
:1008A00054E7101D82469088400500158446404656
:1008B000D444664604302018301AE0260005400D66
:1008C000360230438046C9E701F0F6FB57E7C046E1
:1008D000240100D07F1400202405002000ED00E05A
:1008E000CD01001000E0FFFF00A1FFFF5405002034
:1008F00001BDFFFFAAAA00000148804701BD00001A
:10090000F0B5DE4657464E464546E0B50C0083B08E
:10091000EFF3108972B6584A1368002BFCD0BFF36E
:100920005F8F564B9A68030010339F00D559544A85
:100930009046954232D0A54243D0524EAA1B2F2A50
:100940002CD801228240924651464F4A12681140EB
:10095000019151464D4A1160BFF35F8FEFF305825D
:100960009346002A33D101232A009A4393689C427C
:1009700008D177E04B005B189B00F3189968A142FF
:100980002AD01A00062151560029F3DA019B002BC8
:1009900019D052463E4B1A603B4B1A60374B9B684E
:1009A000DD51BFF35F8FBFF35F8F0022324B1A60C0
:1009B00089F3108803B0F0BCBB46B246A946A046F6
:1009C000F0BD1500EAE75246304B1A60E6E7934265
:1009D000C9D001F071FBC6E706215956002921DB79
:1009E0004A005018800034188046A0689860E0796A
:1009F000D871062020569871002824DBA488F01AAC
:100A00006405241544440019E0240005400D240227
:100A10002043988052181F4B9200B6181A7819700C
:100A2000B271B3E7594600290FD1FF3191711A49CC
:100A3000918018490A789A71184A9B1B5B415A4366
:100A4000120D0A70A2E71648E3E7164A1649D21AB1
:100A5000083A5002400D01439980144952080A4354
:100A6000DA8093E70621515613000029B8DA5A4676
:100A7000002AEAD14546DCE7240100D000ED00E081
:100A8000CD0100102405002000E100E080E100E03D
:100A900080E200E07F14002001BDFFFFAAAA000051
:100AA00001BD00005E05002000F0FFFF00F8FFFF21
:100AB000032310B50400074A18409446C0009C4325
:100AC000FC3383406444226881409A4313000B4303
:100AD000236010BD00E400E070B5EFF30581012450
:100AE0000443EFF3108C72B6214A1368002BFCD03C
:100AF000BFF35F8F1F4B05001F4AED1A6D416A431C
:100B0000120D1E4D8900AE6852B27658A6421CD016
:100B10000621595691421CD012215956914222D099
:100B20001E215956914220D02A2159560324914220
:100B300010D0134B19781A708171BFF35F8F0022A8
:100B40000B4B1A608CF3108870BDAB680D4C5C5079
:100B5000EFE700246100091989005B18FF219971F2
:100B600009499980E5E70124F4E70224F2E7C04649
:100B7000240100D024050020AAAA000000ED00E016
:100B80007F140020CD01001001BDFFFF054B064A78
:100B90001360064A136053609360D360136153611E
:100BA000936170478080808000E400E004E400E00E
:100BB0001F2110B5091A0248FFF72CFD10BDC046D1
:100BC0008114002000B5074B83B001000093002280
:100BD00005230548FFF7D0FC002801DB1F23181A66
:100BE00003B000BDFC8200108114002070B5040029
:100BF0000E001500FFF738FD0100200000F006F898
:100C0000A680E580BFF35F8F70BDC046024B9C4657
:100C100061448900016070474000003410B5040051
:100C2000FFF722FD01002000FFF7F0FFFF232371F3
:100C3000BFF35F8F10BDC04610B50400FFF714FD71
:100C400001002000FFF7E2FFFF23A380BFF35F8FC7
:100C500010BDC04683680B4810B5844661446244A9
:100C6000090112019A18591854684B6801209C42D6
:100C700001D802D00020C0B210BD12680B689A42A1
:100C8000F9D8F7E7FFFFFF0F0A4B1968EFF3108061
:100C900072B60A68002AFCD0BFF35F8F1B68BFF3EF
:100CA0005F8F00221A6080F3108840BF002000216F
:100CB0007047C0465C140020F8B557464E4645467E
:100CC000DE46E0B599460CAB1C780DAB1B780600F0
:100CD00090469A460768002C11D1BC7B002C42D06C
:100CE00065003B682D19033D59194B78BB73002BE8
:100CF00000D1FB7300238B704B700B7004E0650018
:100D00003B682D19033D5919B2682A4B9446424657
:100D1000E3181B0163441A604A465A600A9A9A60B3
:100D20000B9ADA6000238B704B700B707B7B9B46B9
:100D3000002B2BD022005946B8687B6898473A6848
:100D4000002816D05B4658465B005B445519033BB0
:100D5000A870D118D35C002B00D06B705B460C7070
:100D60007B73A34513D0F0BCBB46B246A946A04650
:100D7000F8BD5B465B005B44033BD3189C70511984
:100D8000525D002A00D05A705B460B707C7342465D
:100D90004B46307D00F0FAFB051E06D05346002B73
:100DA00003D12100306800F015FE0E9B002BDAD035
:100DB0001D70D8E7FFFFFF0FF0B5DE4657464E46E1
:100DC00045460023E0B58BB00893674B8200D458AA
:100DD00000239B46099000F04FFB626806000F005D
:100DE000EFF3108572B61368002BFCD0BFF35F8F52
:100DF00023689C465B7B9946002B00D169E0A26882
:100E00005A4B90464B441B01984443461A685B6812
:100E100010001900801BB941002900DC63E009982B
:100E200000F0B4FB002300229846002306920793AB
:100E300000239A466368BFF35F8F5A461A6085F3B2
:100E400010885346002B08D10028C4D10BB0F0BC49
:100E5000BB46B246A946A046F0BD089B41461802D3
:100E60004B461843D047626806000F00EFF3108529
:100E700072B61368002BFCD0BFF35F8F002F50DBDE
:100E800033003B4302D02369002B61D12368D97B17
:100E9000002907D04A00521819688C464946624416
:100EA000033A51709A7B002A01D14A469A734A4606
:100EB000DA734B46E168013BCA5C0132CA545B46B7
:100EC00023616368BFF35F8F5A461A6085F3108809
:100ED00081E700230022984600230692079300230F
:100EE00000209A46A6E7002902D1002800D096E704
:100EF0000021604600F0ECFC43461A685B680692ED
:100F0000079343469B689A464346DB689846E368E6
:100F10004B44013B1B7808931B02034323610020D1
:100F200088E72369002BB1D0069A079B921BBB412F
:100F3000002B15DB5946049101210391494602918A
:100F400041460191514620000091FFF7B5FEB6E7FA
:100F500000F092FA32003B0012184B41002BE9DA04
:100F60000122034B5242E5E738130020FFFFFF0F39
:100F7000FFFFFF7F10B5144C6368002B04D00A21DB
:100F80001248FFF743FE10BD2300114A10212068CC
:100F900000F0B8FB032000F063FA032000F060FBD0
:100FA00003200C4900F0ACFAFFF75EFB0A4B9C46AD
:100FB00003232375D0231B061B6860446375074B0E
:100FC00080006060DC60DAE76C0500205C140020C3
:100FD000550C0010B90D00104000003438130020EB
:100FE000004870476C050020F0B54E464546DE4689
:100FF0005746E0B585B0019310AB1B78060003930C
:1010000000239946984600927268EFF3108B72B6EF
:101010001368002BFCD0BFF35F8F3568AC7B002CCE
:101020003DD067002B683F19033FDB195A78AA733C
:10103000002A00D1EA73B168474A8C4600980199AA
:10104000A21812016244106051600E9991600F99CC
:10105000D16042469A705A701A706B7B9A46002B88
:1010600067D022001900A8686B6898472A68002892
:1010700052D0534650465B005344D719033BB870D7
:10108000D118D35C002B00D07B7053460C706B736F
:1010900054454FD0F3681B19013B187800E000203D
:1010A0007368BFF35F8F42461A608BF31088002C81
:1010B0004FD04B46002B08D10002204305B0F0BCB6
:1010C000BB46B246A946A046F0BD039B002B3ED0CE
:1010D0000E9B00200F999847030004000D000B435E
:1010E00035D000290ADA009A019B121BAB4100920D
:1010F0000193002B0ADB039B994685E700F0BCF9BE
:1011000024184D4100940195002DF4DA0123134C6D
:101110005B4200930194EEE753465B005344033B6C
:10112000D3189C70D119D25D002A00D05A70534652
:101130000B706C73307D009A019B00F027FA81469A
:101140000028A7D02100306800F044FCA2E700206E
:10115000B4E701204042B1E7FFFFFF0FFFFFFF7F31
:1011600070B50400002933D04268EFF3108572B6E1
:101170001368002BFCD0BFF35F8F2068CEB2437B97
:10118000B34216D0FF230B405A00D318026894468E
:101190006344033B9B78002B0BD12269914219D009
:1011A00000206368BFF35F8F00221A6085F3108808
:1011B00070BDFF230A0A0B40E168D2B28C4663443B
:1011C000013B19789142EBD1310000F003FCE8E7D4
:1011D0000020EDE72361E3E7F0B504000D000626EB
:1011E0007642F717C64636196F4100B584B08F4274
:1011F00014D811D000F040F932003B00121A8B4194
:10120000002B15DC002B3ED02000290000F068F9EF
:1012100004B080BCB846F0BD8642EBD9002600275A
:1012200000F02AF932003B00121A8B41002BE9DD55
:10123000002302930193154B3200009314483B00A6
:10124000FFF7D2FE0028DFDB00239846BC46114A98
:10125000114F7B6A9C4504D8B96A8E42D4D99C450B
:10126000D2D11168EFF3108072B60B68002BFCD05E
:10127000BFF35F8F1368BFF35F8F4146196080F340
:10128000108820BFE5E7002ABED0D1E7890C001006
:101290006C0500205C1400200040054070B506007D
:1012A00000F0EAF8FA2204000D00002330000021CB
:1012B000920002F0C9FD00196941002902DBFFF725
:1012C0008BFF70BD012001494042F8E7FFFFFF7F1F
:1012D000F0B5EFF30583CE46474680B505000C0018
:1012E00085B0002B12D02C4A0020536A9C4203D8B0
:1012F000926A0130AA4204D305B0C0BCB946B046D8
:10130000F0BDE01A421E9041C0B2F5E7234E0293B1
:101310000193234B0200009330000B00FFF764FEA3
:10132000031EE0DD20BF7168EFF3108772B60A6814
:10133000002AFCD0BFF35F8FDAB294463068427B5C
:1013400062451DD0FF221A40510089460168914430
:1013500088464946414403398978002913D0F16809
:101360001B0A88464244013A1278DBB29A420FD0F7
:101370007368BFF35F8F00221A6087F31088B2E7AB
:10138000FF221A40EBE732699342F1D13161EFE776
:10139000614600F01FFBEBE7004005406C050020B4
:1013A000890C0010F0B5EFF30582D6464F4646464D
:1013B0001000C0B51038EFF3108872B6214C2368C6
:1013C000002BFCD0BFF35F8F0123190081401E4D1D
:1013D0001F006963AA461D4D29601D4D2E78AC463D
:1013E0003500C5402F402B4209D1BFF35F8F2760E6
:1013F00088F31088E0BCBA46B146A846F0BD534613
:10140000144D5F6A83005D59AF420ED3124A8E437A
:101410009B5862461670BFF35F8F0022226088F3EC
:101420001088002BE6D09847E4E70C4B92009C46CE
:10143000624413681360BFF35F8F0023236088F357
:101440001088D7E7280100D0004005403C700540D7
:1014500080140020601400208C080020D03F05403C
:1014600010B50100024A0348FFF764F810BDC046FA
:10147000208300107D140020034B596A0A00986AEB
:10148000596A8A42FAD170470040054070B504009D
:101490000D00124A536A1900966A536A8B42FAD1B8
:1014A0003000190024184D41AB4211D80ED02B004A
:1014B0000A494A6A9A42FCD307D1084A02E0516AB3
:1014C000994202D1916AA142F9D370BDA642EED9E8
:1014D000012301246442E5175B42E9E7004005402F
:1014E000064A536A9942FCD807D1044B02E05A6A73
:1014F000914202D19A6A8242F9D370470040054076
:1015000070B504000D00EFF3108672B61A4A136826
:10151000002BFCD0BFF35F8F002D1BD02000FFF706
:10152000C9F8164981420AD02000FFF7CBF8012103
:101530002000FFF7A5F80123A340114A1360114BC7
:10154000A400E550BFF35F8F00220B4B1A6086F3B7
:10155000108870BD0B4BA200D5500122A2400A4951
:1015600020000B7893430B700449FFF7C9F9002161
:101570002000FFF785F8E5E7280100D0A51300104B
:10158000386005408C08002080140020F0B54F46DC
:10159000D6464646C0B507002C4C616A0D00A66AC7
:1015A000616AA942FAD18B4208D805D00120E0BC7B
:1015B000BA46B146A846F0BDB242F7D9EFF3108A59
:1015C00072B6234801680029FCD0BFF35F8F012564
:1015D000BD4020491D4C8846097889462943C9B237
:1015E0008C46414660460870391D1B48890065637A
:1015F0000A51B9000B50216A0020294219D0616AB2
:101600000800A66A616A8142FAD18B4219D801D1D9
:10161000B24216D8CC4516D00C4B1F201D625D631C
:1016200001230740BB400D4A1E38136043464A461B
:101630001A70BFF35F8F0022054B1A608AF310887F
:10164000B5E70020F5E70120F3E7C046004005407C
:10165000280100D0801400206014002080E200E007
:10166000EFF3108C72B60A490B68002BFCD0BFF365
:101670005F8F01238340074A0748136202789A4329
:101680000270BFF35F8F00230B608CF310887047EC
:10169000280100D0004005408014002070B50500EE
:1016A00014001600002915D00C00002A12D0806802
:1016B0006B689847296800280ED073009B19620058
:1016C000033B1219CB18033A9C7088188A5C002AD5
:1016D00015D10670200070BD63001B197200033B1A
:1016E0009219CB18033A9E7088188A5C002A02D19E
:1016F00004703400EEE75A7004703400EAE75A7060
:101700000670E7E730B583600023CCB24373013342
:10171000047342608373C4730D000068012C06D902
:10172000421C0133DBB2137003329C42F9D1FF211A
:1017300029404B005918002340180338437030BD2E
:10174000F8B5CE46474606000C0080B5002907D004
:101750004D0003686D18033D5A195778002F04D1C6
:101760002000C0BCB946B046F8BD7900C91903399C
:1017700088464344597889460021597051707368EE
:101780003A002100806898473368002814D0424608
:101790009A18947059195B5D002B00D053700F702C
:1017A000270049463000FFF7CBFF39000200300028
:1017B000FFF774FF0400D3E7424641465D19AF705E
:1017C0009A185B5C002B00D06B701470E9E7C04680
:1017D000F0B557464546DE464E46E0B50D006B0077
:1017E00001685B19DF1E0400C85D83B00192CA194D
:1017F000002850D043001B18033BCB185E78B4463A
:10180000002E1AD1019E002E42D0E67B002E04D07D
:1018100073009B19CB18033B5D70A37B002B00D199
:10182000A573E57300282FD10023537003B0F0BCDB
:10183000BB46B246A946A046F0BD72006244033AD8
:1018400089184A78904600224A7091465A700100E1
:1018500032002000FFF722FF43468246002B07D0CC
:101860005B0021684344033BCB185A78002A16D109
:10187000424651462000FFF711FF2168019BCA191B
:10188000002BC2D10028CFD043001B18033BCB183C
:1018900000219970C8E7019B002BB6D1C4E7500026
:1018A00080180338091848788346484648705870AD
:1018B00041462000FFF7F2FE594680462000FFF720
:1018C0003FFF414602002000FFF7E8FE8046CFE7D9
:1018D000F0B557464546DE464E46E0B583B0019129
:1018E000457B04006B0000685B19DF1EC15DC219F7
:1018F000002952D04B005B18033BC3185E78B446F6
:10190000002E1CD1019E002E44D0E67B002E04D078
:1019100073009B19C318033B5D70A37B002B00D1A0
:10192000A573E573002931D100232800537061733A
:1019300003B0F0BCBB46B246A946A046F0BD72005B
:101940006244033A801842789046002242709146E1
:101950005A7020003200FFF7A1FE43468246002B5A
:1019600007D05B0021684344033BCB185A78002A18
:1019700017D1424651462000FFF790FE019B01001F
:101980002068C219002BC0D10029CDD04B005B18B4
:10199000033BC31800209870C6E7019B002BB4D10D
:1019A000C2E7500080180338091848788346484633
:1019B0004870587041462000FFF770FE5946804637
:1019C0002000FFF7BDFE414602002000FFF766FE43
:1019D0008046CEE770B5040000292CD0437B8B42B3
:1019E0002ED0056848004018033828188278002A4D
:1019F00021D053009B18033BEA5CEE188A4202D1C7
:101A00001BE0002A08D053009B18033BEB185A78C0
:101A10008A42F6D142785A700023012283704370C3
:101A20002000FFF7D5FE617B02002000FFF736FEA5
:101A30006073012000E0002070BD43783370EBE755
:101A400001221900FFF7C4FE60730120F4E7C046CD
:101A5000F8B5CE464746040080B506200E0000F0DB
:101A600023FA051E51D0524B5249E21853425A41B3
:101A70008023DB039C4692054F4B62441A604F4B18
:101A80001A6010008B689843FBD1494B8021E31802
:101A90005A4253414A4A5B0049009952062000F0DD
:101AA00003FA3100C00001F057FEC30932D14022D1
:101AB000012190466162A362256BEB0736D42700B3
:101AC0008026E36A00232C3776013E4333600620EC
:101AD000256300F0E9F94146800001F03DFE236BEB
:101AE00005009846DB073BD46022E36A5A406E2328
:101AF0001340336043462363802310229B013B4302
:101B00001A60304B23630323A3642800C0BCB9468A
:101B1000B046F8BD2C4A93423FD900232B492C4AAA
:101B20006162A362256B9046EB07C8D52200C023F3
:101B300030329B011343234A06201A60666AA26A68
:101B4000B601B61800F0B0F9224901F005FEB60260
:101B50000100300001F000FE0021FFF797FCAEE726
:101B60002200C02330329B011343164A06201A601C
:101B7000636AA26A9B019946914400F095F94B462D
:101B800014499B02994601F0E7FD0100484601F027
:101B9000E3FD0021FFF77AFCA6E77F229901884642
:101BA00010400130400819008044030082E7C0461D
:101BB0000080FCBF00C0004000E0004000F000409A
:101BC0007014002001030000FEFF0000FFFF000072
:101BD000C0FF3F004E0E000030B50C2083B000F077
:101BE000B9F9FEF789FC00280ED0994B994A1A6082
:101BF0005A609A60DA601A615A619A61DA611A620F
:101C0000954A5A6203B030BD944CA06700F0AAF91F
:101C10000122934B1A60636C012BFCD10322914B80
:101C20001A608E4A936B012BFCD1013301218E4A3D
:101C30008E480093043300F03DF905238C4A00934D
:101C400001218C4800F036F98B4B5A68FF2A02D8E4
:101C5000802252005A6080227D4C824B2169120101
:101C6000854D1A60002907D0606901F075FD431C9D
:101C70005800C0180338FDD2E0217F4B02201A68BB
:101C80001140802252012A43116019684840032103
:101C90000140116004219A681142FCD08022802109
:101CA00092012A4309011160802252005A60734B4D
:101CB0002361734B5968FF2900D85A600321684A91
:101CC0006F4B116002399A681142FCD0E0201A680B
:101CD0001040802252011A431060186848400321C6
:101CE00001400220116066498A681042FCD08022BF
:101CF00092011343802212011A608022614B52002C
:101D00004A606361604B5968FF2900D85A6080229D
:101D10005E4BE16912015C4D1A60002907D06069D1
:101D200001F01AFD431C5800C0180338FDD2E02210
:101D300055490B681A4080235B012B431A608023AE
:101D400080229B012B4312011A608022414B5200DA
:101D50004A60E3614E4B5968FF2900D85A608022DF
:101D60004C4B216A12014A4D1A60002907D0606964
:101D700001F0F2FC431C5800C0180338FDD2E022E9
:101D800043490B681A4080235B012B431A60802370
:101D900080229B012B4312011A60802380225B006A
:101DA0004B602C4BD20223623B4B5968914200D2CC
:101DB0005A608022394B616A1201374D1A6000293E
:101DC00007D0606901F0C8FC431C5800C0180338F4
:101DD000FDD2E02230490B681A4080235B012B437F
:101DE0001A60802380229B012B4312011A608023FA
:101DF000DB024B60184B6362294B5A68FF2A02D8FA
:101E0000802252005A608022264BA1691201244D83
:101E10001A60002907D0606901F09EFC431C58003D
:101E2000C0180338FDD2E0221D490B681A408023F8
:101E30005B012B431A60802380229B012B431201FC
:101E40001A6080235B004B600E4BA361DAE6C0464C
:101E5000CC090020006CDC021BB7000000800040B1
:101E60003CB0004030B00040002F68590080024074
:101E7000008C864700C0024030800040001BB70045
:101E80003C800040405973075480004054B00040EB
:101E90006080004060B000406C8000406CB000404A
:101EA0004880004048B00040014B8000C058704757
:101EB000CC090020F8B5040021481D0017000E00D1
:101EC00001F04AFC0100380001F046FC069B2904A1
:101ED0001B0319432368002B20DB1A4B1A4DE21811
:101EE00053425A4180235B019C461203174B6244C4
:101EF0001A60174B1A601700AB689F43FBD1C022D2
:101F0000231D92011A4321232660A06013602368D9
:101F1000002BFCDA0823E1601360F8BD3F23226840
:101F20001340B342D9D1A3681B051B0D8342D4D102
:101F3000EE22E368D20213408B42CED1EDE7C046D9
:101F4000001BB7000040FDBF00C0004000E00040A3
:101F500000F000408023024A9B000343D362704795
:101F600000800540AA23064A1B0113602F23054960
:101F7000D360054B19605368002BFCDA7047C046EC
:101F80000040024000B0FA00006002402C4B2D4A95
:101F900070B51A602C4A2D4B2D491A6014008B68BD
:101FA0009C43FBD12B4D2C4EB54208D2013E761BF3
:101FB000B60808CD984723000134B342F9D1FFF7A2
:101FC0000BFE264A214B1A60214A9368DB43DB0152
:101FD000DD09002BF9D14022214B224C224E9A6779
:101FE0005A671A67DA66B44208D223682000002BC9
:101FF00020D00834FEF720FEB442F6D31B4E1C4C12
:10200000C022A168300001F07BFFA660FEF71EFB36
:10201000FEF7BCFDFEF7AEFF164C174EB44208D2D9
:10202000013E361BB60808CC98472B0001359E426E
:10203000F9D170BD0834FEF7F1FDB442D5D3DDE728
:1020400000E00040BFCDFBFEFE7F3C0000F0004002
:1020500000C000400806002018060020FFFFFF0116
:1020600000F00140000600200806002000000020CB
:1020700000ED00E0180600202006002000BEFDE76D
:1020800010B5FFF7FBFFC0460FB400B5084883B09A
:1020900002F09AF8049B002B07D005A918000191C3
:1020A00001F0DAFA034802F08FF80120FFF7E6FFAB
:1020B000448300103487001010B50148FFF7E4FF97
:1020C000548300107047C046F8B557464E46454603
:1020D000DE46E0B599460A9B07009A460D9B884666
:1020E000934615000B9E9B0710D10C9B9E420DD270
:1020F0009D1B14000E005D4422004B46013431004C
:102100002020B847A542F7D1B0460B9E002E27D01D
:10211000444675195346AA1B013E985D21004B4663
:10212000B847002EF6D123002C0098460D9B9B0744
:102130000FD55B46E51A0C9BAB420AD9464698463A
:1021400022004B46310020200135B8470134A84514
:10215000F6D82000F0BCBB46B246A946A046F8BD62
:102160002C00E3E7F0B54F464646D646C0B584B0EE
:1021700098460EAB1B78129F994694460D9C109B77
:10218000119EBA0725D4002E4BD19C4200D3BFE04C
:1021900001223A4092461F2C00D9B8E00C9A551EF5
:1021A000302201E0202C03D001342A55A342F9D873
:1021B0005246002A0DD0A6420BD9202C44D00C9AAE
:1021C000551E302201E0202C3ED001342A55B44265
:1021D000F9D1FA064DD57A053FD4002C39D10F9BA1
:1021E000102B00D179E00F9B022B00D18AE0302325
:1021F0000C9A012413704B46002B3FD02D230C9AD0
:10220000135501340C9B6246009303974346029694
:102210000194FFF759FF04B0E0BCBA46B146A846A6
:10222000F0BD012215003D40AA463A422FD04A4651
:10223000002A02D10C323A4200D0013E9C42BAD26E
:102240001F2CABD9202E27D92024FA06DAD57A05FF
:1022500003D4A3422DD0A6422BD00F9B102B32D0FB
:10226000022B20D0202CCDD030220C9B1B191A70B1
:102270000134202CC6D04B46002BBFD17B070DD498
:102280003B07BFD520230C9A13550134BAE79C4273
:102290009FD21F2C00D881E720249AE72B230C9A89
:1022A00013550134AEE7202CACD00C9B1B19013424
:1022B0003AE0631E012C92D00F9A102A2AD0022AEB
:1022C0002FD01C00D0E7BB060ED4202C9AD00C9B3C
:1022D0001A19013478231370C4E7BB060DD4782390
:1022E0000C9A01241370BFE7202C00D18AE75822F2
:1022F0000C9B1B191A700134B4E758230C9A012463
:102300001370B1E70C9A603301241370ACE72024FA
:1023100000265EE7023CBA06E9D40C9A12191C00AA
:10232000D8E70C9A9246534462221A709AE7C04644
:1023300010B5002800D110BD01F0FAFEFBE7C04641
:102340000B0010B5002802D049681B68984710BDE3
:10235000F0B5DE4657464E464546E0B59BB09B4637
:10236000249B89469846259B0B900C9240464246FA
:1023700019009A4601F0A9FC002800D0D8E00122FB
:1023800040465146774B524201F09AFC002800D05B
:10239000CEE0012240465146734B524201F07AFC96
:1023A000002800D0C4E0002200234046514601F03E
:1023B00071FC002800D0B9E1424653460A920993C5
:1023C0008023289ADB001A400E92289A1A4201D1E3
:1023D000062326930A9A099B1600134300D0C7E0F0
:1023E000289B002500261B0500D49BE100230D93AC
:1023F000269A0D9B9A4200DC9FE1D01A431E269339
:102400008023289ADB001A430023002728920D938B
:10241000279B0024BB4200D9DC1B0223289A1A40C8
:102420000E92289A134203D07B427B415B421C40B0
:102430000D9B002B07D00A9809992A00330001F060
:10244000D0FB0A900991002200234046514601F03A
:1024500021FC002805D080200006844609996144AB
:102460000991289A414B0B9D13400493269B0A9A8D
:102470000293099B03940092019349465B4628000E
:102480000C9A00F08BF90400002F62D0289B2200E8
:1024900098061F23C0179843631C984649465B461D
:1024A0006530A8470D9B0025DA179C18DB0F9A466C
:1024B0005440013F01E0202D13D00AAA94461F2367
:1024C000200063440A2101355E1901F045F93031DD
:1024D000317020000A2101F03FF926000400092E86
:1024E000E9D805230693002304930A330393534644
:1024F00005970B9F029312AB009342465B464946F9
:1025000038000195FFF72EFE0E9B0400002B20D013
:102510000C9BC51A279BAB421BD91E0022005B46B1
:10252000494620200135B8470134AE42F6D810E0C4
:10253000289B42460493279B49460393269B0B986E
:1025400002935346009201935B460C9A00F026F9E1
:10255000040020001BB0F0BCBB46B246A946A04612
:10256000F0BDC046FFFFEF7FFFFFEFFFFFF7FFFF6C
:10257000734B099F9C467800400D604401F0B8FB06
:10258000704A714B01F047FB704A714B01F024FB1C
:102590003B03704A1B0B1A4304000D00300011006E
:1025A0006D4B002201F013FB6C4A6D4B01F033FBC5
:1025B00002000B002000290001F00EFB01F0B0FB2F
:1025C0000D9001F095FB674A674B04000D0001F088
:1025D00022FB0022654B01F0FFFA01F0A1FB644AE7
:1025E0000600644B2000290001F015FB04003000B8
:1025F0000D000F9601F07CFB5F4A604B01F00BFB76
:1026000002000B002000290001F0E1FA02000B009B
:1026100006000F0001F0FFFA320004000D003B003D
:102620003000390001F0D8FA002210901191544B7B
:102630002000290001F0D5FA0022524B01F0CCFA1B
:1026400002000B002000290001F0CBFA00224E4BC3
:1026500001F0C2FA02000B002000290001F0C1FACB
:102660000D008021040032003B000020C90501F06C
:10267000AEFA02000B002000290001F0ADFA0200C2
:102680000B001098119901F0ACFA0022314B01F0C7
:10269000A3FA3E4B0F9C9C4664440022230501F0A4
:1026A000BAFA05000E0002000B000A98099901F021
:1026B000F1FA00280AD00D9B2800013B31000D9350
:1026C0000022304B01F08DFA05000E00C6270D994F
:1026D0002B0063318F42BF4128997F42043709059F
:1026E00000D495E6334300D182E6099C284A2100B4
:1026F000284B0A9801F0DCFA002808D000222100BB
:10270000254B0A9801F0C6FA002800D070E6269BF7
:10271000002B00D17CE60E9B5A1E9341269AD31AB9
:10272000269375E6002304270D9371E643460A932A
:1027300080231B065344099342E6002326935FE659
:1027400001FCFFFFFB799F501344D33FB3C8608B5C
:10275000288AC63F0000F03F0000F83F61436F63E6
:10276000A787D23F71A379094F930A400000E03F49
:102770001655B5BBB16B0240EF39FAFE422EE63F6B
:1027800000002C400000244000001840FF0300001F
:102790002D431CEBE2361A3F80842E41F0B54E46A5
:1027A000DE4657464546E0B597B09946209E219FA4
:1027B000229B8346984607910C923B0032003000E2
:1027C000390001F082FA002800D0A9E1012230008E
:1027D0003900CA4B524201F05DFA002800D0E1E016
:1027E000012230003900C64B524201F069FA00283C
:1027F00000D0B7E0002230003900C24B01F060FA8F
:10280000002800D099E0002230003900BE4B01F0D2
:1028100041FA002800D090E0002200233000390067
:1028200001F038FA002800D0B1E000230D93249B7A
:102830005B0501D40623984608AB9C46172200246A
:1028400030234146624404E0013413550139202C01
:1028500001D00929F8D888463000390001F060FA23
:102860004346DA00A94B05009B181A685B6808927A
:10287000099301F03DFA02000B003000390001F02D
:10288000A6F9089A099B01F0C6F90A900B9101F08C
:102890006BFA824601F028FA02000B000A980B99A5
:1028A00001F095F900229A4B0A900B9101F008FA79
:1028B000002800D1C0E001239C46E244504601F0CC
:1028C00013FA02000B000898099901F0E9F90028B1
:1028D00002D000239A4601354346002B6AD008AB4C
:1028E00017269C4608956644554614E001235B4232
:1028F00043440A2128009A4600F02EFF013430316B
:102900003719397028000A2100F026FF092D00D858
:10291000D0E0D0460500202CE8D10EAB984603232A
:10292000249A1340012B00D196E02023249A01938E
:102930000392239A434602921EE0249B5846049336
:10294000239B00960197039343460C9A02930799A1
:102950004B46FFF7FDFC17B0F0BCBB46B246A9469C
:10296000A046F0BD249B5B070ED40322694B24993B
:102970000192039123990291009358464B460C9A79
:102980000799FFF7A1FBE6E70422634BEFE73B0063
:1029900032000020002101F01AF9012306000F0087
:1029A0000D9344E7249B0393239B029304230193F9
:1029B0005A4BE1E7280001F09BF902000B003000C0
:1029C000390001F004F9524B002206000F0001F01B
:1029D00061F90EAB984600280AD100223000390078
:1029E0004B4B01F06DF9002802D1EB0700D5013502
:1029F000202C94D008AA94461723280063440A2167
:102A000001341E1900F080FE3031280031700A2197
:102A100000F07AFE051EEBD10323249A1340012B0C
:102A20001BD0202C00D180E70D9B002B35D02D2210
:102A30004146631C0A5579E700220A980B99344BEA
:102A400001F028F9002800D046E75346002B51D169
:102A500001239C46E2443FE72024239B002BE0D047
:102A60000D9B002B03D1249A0C33134202D0239BDD
:102A7000013B2393239BA342D3D908AB9C46172247
:102A800030236244202C00D14FE7239901341355A1
:102A90008C42C6D0202CF8D147E7249B5B0724D476
:102AA000249A2300120700D440E720224146013334
:102AB0000A553BE75746089D202C00D12DE7220000
:102AC00030214046002F09D00132B154202A00D1D4
:102AD00023E7D3431B191B18002BF5D10EAB9846E7
:102AE0002E234146541C8B5482E72B224146631C03
:102AF0000A551BE7DB0700D4EEE6A9E7FFFFEFFF6F
:102B0000FFFFEF7F65CDCD4165CDCDC1588500106C
:102B10000000E03F608300106483001070830010A9
:102B2000249B0393239B029303230193004B23E7EE
:102B30006C830010F0B5DE464E4657464546E0B57C
:102B40009FB01C00289B91460993C94AC94B8B46EC
:102B500008901A60002900D118E2002320789A46D4
:102B6000002800D11AE226001D005C460AE02A0077
:102B70006F1C4B46089D2100A8473D000136307868
:102B8000002870D02528F2D110239B46083B9A4696
:102B9000043B9846023B00219C46721C10781600AC
:102BA0000300203BDBB2102B03D8B34F9B00FB5834
:102BB0009F460300303B092B32D900230A932A2871
:102BC00068D0002398462E283ED00300683BDBB235
:102BD000122B1CD8A94A9B00D3589F4601230132CF
:102BE0001943DBE7634601321943D7E74346013215
:102BF0001943D3E75B4601321943CFE7534601320D
:102C00001943CBE780235B0070781943013603003A
:102C1000253BDBB2532BAAD8994A9B00D3589F4639
:102C200000270300B800C01901364000C0183378EF
:102C300030381A00303A0700092AF3D90A901800F0
:102C4000002398462E28C0D180237078DB001943DA
:102C50000300303B721C092B00D8A1E12A2800D1C7
:102C6000B2E11600B1E7A346AA462C00D14503D82D
:102C700001235B424B449A464B465246594600203C
:102C8000089DA84720001FB0F0BCBB46B246A9462D
:102C9000A046F0BD099B40CB0A96002E03DB50787E
:102CA0000993561C8DE72838014370420A90099316
:102CB0005078561C85E7782800D1DFE1582800D1EC
:102CC0004CE26F2800D14FE3622801D100F030FCC4
:102CD00010230A009A430B92692801D000F0A9FC46
:102CE0000A230C934B0500D5D0E10B9A80231100E9
:102CF0009B0019408B461A4200D0A1E280231100AC
:102D00005B0019408A461A4200D0B6E313005B0606
:102D100000D5EDE2130009991B0601D400F076FC02
:102D200008C91BB2D8171A18424092B209919346AB
:102D3000DA0F1292002B09D1802310220B99DB00AD
:102D40000B4091430B91002B00D0E4E20B9A6123DE
:102D5000920600D541230EA91F228C46DBB26244A5
:102D60000A3B5F461395A34655460C9CB2460D930D
:102D700016000AE03033DBB201357355A74200D2AA
:102D8000EDE2202D00D1EAE207002100380000F03A
:102D9000E3FCCBB20929EDD90D9A94466344DBB22A
:102DA000EAE780239B007078194301362FE770789B
:102DB000682800D1CDE180230136194327E77078D8
:102DC0006C2800D1BFE180235B00194301361EE768
:102DD000462800D19BE10722099B049107339343C6
:102DE0000A9A19000392424602920CC9089800926E
:102DF000019309912A004B462100FFF7CFFC0136D1
:102E00000500BCE62A006F1C4B46089D21002520CA
:102E1000A84701363D00B2E68B0700D4ADE1099B1F
:102E20002A009A466B1C9846534601CB21009A46CD
:102E3000089F4B46C0B2B8470A9B9C466544012B8D
:102E400000D886E2089B4746B04626004C46994685
:102E50003A002300013731002020C847AF42F7D1A4
:102E6000A1465346340046460993013687E6C046DC
:102E7000352B00103413002078830010BC83001021
:102E800008840010099B04CB9B4643460992002B03
:102E900000D1C6E013789C46002B00D1BDE3434629
:102EA000013B099A0133D0180A9F130001E08342C5
:102EB00003D05A780133002AF9D1099A0A979B1A4C
:102EC0000B9380230A00DB001A400C92194204D0B5
:102ED0000B9B434501D943460B9302231A000A403A
:102EE0000D920B4200D187E16046002800D168E1D5
:102EF0000C9B002B00D10DE1A844C246099B57460C
:102F00005B1B9846089BB2462A0026004C46994611
:102F100009E023003100551CC8474346585D00288E
:102F200000D126E12A009742F3D1A1463D003400AA
:102F300056460D9B002B00D043E15B4601360993BA
:102F40001DE6099B1A0008CA9246002B48D0212290
:102F500011438B460EA884461F2161440995002227
:102F60000F27A4460D0002E0202A0CD00B003C00E5
:102F70001C4020003730092C00D807380132A854F3
:102F800019090F2BF0D86446099D32E0DC4B2078FC
:102F9000089300239A46002800D0E4E5002465E663
:102FA000434606000A9F9800C0180132400080196D
:102FB0001678030030003038303B0928F3D9300050
:102FC000984616000A9700E6099B023604CB904605
:102FD000D2434046D2171040804609933078F4E53A
:102FE0001022080090431132104383460022490505
:102FF000B0D55B46069308230593434604931023FC
:1030000003930023029316AB019200932A004B46D0
:1030100021000898FFF7A6F85346050001360993EA
:10302000ADE513789C46002B00D1F7E202235B420A
:1030300037E7202302009A43472A04D180231B014B
:10304000194302239843452801D12023194307221D
:10305000099B0491073393430A9A1900039242464D
:1030600002920CC908980092019309912A004B46DC
:103070002100FFF76DF90136050080E510230C9360
:103080000C230A009A430B924B0503D501230B9A9C
:103090009A430B92692800D127E6642800D124E6E0
:1030A0000B9A802311009B0019408B461A4200D0D6
:1030B00066E1802311005B0019408A461A4200D065
:1030C00039E213005B0600D53CE113001B0600D477
:1030D000A6E2099B04CB1204120C934609935B46AB
:1030E000002B00D09AE10B9A1033110099430B91F9
:1030F000520500D492E100239A460B9B06930A9B4B
:103100000593434604930C9B039300230CE1202377
:10311000194360E6099B0A9A5B1B98464B46914609
:103120001F00B2462600089C2A003B003100A04741
:1031300043460135585D0028F6D14A463400B94669
:1031400056460A92F5E6C0239B00B0781943023632
:103150005DE5C023B0781943023658E50C230A0018
:103160009A4314331A43103B0B920C934B058DD4A6
:1031700096E7A14634005646DBE60A9A012A00D8B3
:1031800053E26B1E9F18089BB04626004C4699469A
:103190002A002300013531002020C847BD42F7D165
:1031A000A14634004646099B3A0001CB21009846CF
:1031B0007D1C4B46089FC0B2B84743460136099371
:1031C000DDE40B9B0A9AA8469A4200D8B5E69446DD
:1031D0006544ED1A089B4746B04626004C46994682
:1031E0003A002300013731002020C847AF42F7D111
:1031F000A14634004646A0E60B9A0A99531C914218
:1032000000D814E24B199B1A1F00089BB2462600F7
:103210004C4699462A002300013531002020C8473A
:10322000BD42F7D10A9BA14601330B93099B3400A1
:103230001B7856469C466046002800D058E67CE63F
:103240000722099B07339343013294469C4462460C
:103250005F6809921A68FB171093119310981199DF
:10326000030053400E930B007B400F9394460E9A3D
:103270000F9B121A8B410E920F93FB0F6246129313
:1032800000233A439B463DD00B9A6123920600D51A
:1032900041230022DBB20EA90A3B8C4692460D93D5
:1032A00043461F3262441395159655460E9E0F9F56
:1032B000A24690460C9C14930CE03032D2B24346A6
:1032C00001355A55BB4500D18AE1202D00D18AE154
:1032D00006000F00220000233000390000F07AFAC7
:1032E000D2B2092AE9D90D9B9C466244D2B2E6E7E4
:1032F000FF23099904C913401A00099117E5C04634
:10330000C52000100B9A1033110099430B91520500
:10331000BAD500239A460B9B06930A9B0593434616
:1033200004930C9B0393129B02935346019316AB99
:103330002A00009321004B460898FEF713FF013640
:1033400005001CE4FF22099B02CB11408B46099328
:10335000C5E65346454609930136FFF710FC56462D
:103360005C46AA46139DD6E708230C930B910B9954
:10337000642800D084E60B9B5B0500D586E6B4E4A8
:103380000722099B07339343013294469C446246CB
:1033900009921A685B6810009B4613005A46134353
:1033A00007D10B9A1033110099430B91520500D5A8
:1033B000A1E60B9A6123920600D541230022DBB2DD
:1033C0000EA90A3B8C4692460D9343461F32624437
:1033D0005F461295A34655460400B24690460C9EA1
:1033E00013930DE03032D2B2434601355A550023D3
:1033F000BB4200D100E1202D00D100E104000F000C
:10340000320000232000390000F0E4F9D2B2092A8A
:10341000E8D90D9B9C466244D2B2E5E70B9A612342
:10342000920600D54123DBB20EA90A3B1F228C462F
:103430000D93230062445C461295170055469B4647
:10344000B2460C9E08E03033DBB201357B55B44206
:103450000ED3202D0CD004003100200000F07CF9A8
:10346000CBB20929EFD90D9A94466344DBB2ECE75D
:1034700056465C46AA46129D3FE6099B1A0008CABA
:10348000D91713925A184A409246DA0F1292002B1B
:1034900008D1802310220B99DB000B4091430B9144
:1034A000002B2BD10B9A6123920600D541230EAA43
:1034B0001F279446DBB20A3B0D9567445D4609938E
:1034C000A3465446B2460C9E08E03033DBB20135C9
:1034D0007B55B4420ED3202D0CD0040031002000C7
:1034E00000F03AF9CBB20929EFD9099A944663441E
:1034F000DBB2ECE756465C46AB460D9D0B9B2A00C3
:1035000006930A9B21000593434604930C9B08985D
:103510000393129B013602935B46019316AB009313
:103520004B46FEF71FFE139B05000993FFF727FB91
:1035300002230C931AE7099B04CB92461293002AAC
:1035400008D1802310220B99DB000B4091430B9193
:10355000002B2BD10B9A6123920600D541230EAA92
:103560001F279446DBB20A3B0D9567445D460993DD
:10357000A3465446B2460C9E08E03033DBB2013518
:103580007B55B4420ED3202D0CD004003100200016
:1035900000F0E2F8CBB20929EFD9099A94466344C6
:1035A000DBB2ECE756465C46AB460D9D0B9B2A0012
:1035B00006930A9B21000593434604930C9B0898AD
:1035C0000393002302935B46019316AB00934B4693
:1035D000FEF7C8FD129B050009930136FFF7CFFAED
:1035E000B44200D871E6149B54460E960F97AA4633
:1035F0009846159E139D8EE6A64200D8FBE6139BC7
:1036000056469846AA465C46129D76E508C9D817E4
:103610001A1842400991FFF78AFB00230B9350E4EC
:10362000099B04CB9346099359E52F00BBE50B9307
:1036300001E6063B0C939AE600B585B003910121A3
:1036400002900093034813004A4202A9FFF772FA5E
:1036500005B000BD4123001010B5094A03001468ED
:1036600084B0002C08D0012200910648524203A9E0
:10367000A047012004B010BD00F0A6FD0020F9E72E
:10368000341300203123001001480421014B184756
:10369000A0050020C5360010014B9B6818470000AC
:1036A000A0050020142310B50100188804331B88DE
:1036B000984710BD162310B50100188802331B88E7
:1036C000984710BDF8B54746CE4680B50F1E19D0B5
:1036D00014239946043304000025012698464B46DE
:1036E0001888434621681B88984701C4431E9841A7
:1036F000013540420640AF42F1D13000C0BCB9466E
:10370000B046F8BD0126F8E7124A936F9B0815D220
:103710009066D166002905D0FFE7FFE7FFE7516F0C
:10372000106F704704B580210906C2175140002868
:1037300000D0C84304F0A0FD002104BDF0B5146E14
:10374000556E576F166FFFF7E3FF146655665767A0
:103750001667F0BD000000D0114A936F9B0813D28A
:1037600010665166002905D0FFE7FFE7FFE7516FBC
:10377000106F704704B5002801D00020C04304F04A
:103780007BFD002104BDC046F0B5146E556E576F29
:10379000166FFFF7E5FF1466556657671667F0BDAD
:1037A000000000D094464A4A926F9208624601D2C5
:1037B00028E0C046F0B5464E346E756E776F366FB2
:1037C00000F020F89446424A14665566576716671B
:1037D0006246F0BD94463E4A926F9208624601D21C
:1037E00054E0C046F0B53A4E346E756E776F366F62
:1037F00000F04CF89446364A1466556657671667CB
:103800006246F0BD002B24DB11D000293EDA00B562
:10381000C943404200D1013100F038F8C943404269
:1038200000D10131DB43524200D1013300BD002AF7
:10383000EBD1002801D1002905D00020C90FC9070C
:1038400001D1C043410800B504F006FD0022002369
:1038500000BD00B500290ADBDB43524200D1013331
:1038600000F014F8C943404200D1013100BDC94302
:10387000404200D10131DB43524200D1013300F01C
:1038800005F8DB43524200D1013300BD002923D1AA
:10389000002B18D1002A0CD0BC460D4F38667A6632
:1038A00000210023FFE7FFE7FFE77A6F386F6746E5
:1038B0007047002801D00748010000B504F0CCFC97
:1038C0000022002300BD02000B00002000217047F1
:1038D000000000D0FFFFFFFF002B00D0BFE0130C63
:1038E00028D1002AE7D080B4114F39667A66FFE705
:1038F000FFE730B4040C7B6F396F1B0423433B6636
:103900007A66FFE7FFE7FFE7C04684B27B6F3D6F53
:103910001B0423433B667A66FFE7FFE7C0460023AC
:103920002C042D0C7A6F386F00196941B0BC7047B8
:10393000000000D0F0B594460025140E01D112020B
:103940000835140F01D112010435940F01D19200F2
:103950000235D40F01D152000135D40B0134254F6B
:103960007C66254C3C660E0C93B2FFE7FFE7FFE751
:103970003C6F6643360C7703BE467343DF0B5B0434
:10398000C01AB941130C7343DB18C91ACE08664339
:10399000360CB64493B273431F0F1B01C01AB941D2
:1039A000130C73431F0B1B05C01AB941860D8F0200
:1039B0003E436643360C092D24DB520A7243801ABB
:1039C0007703460A6643360C16235B1BDE40DF4056
:1039D000BF1964466643821B7046043506330100F6
:1039E000D940A840C01900D30131A24206D2002319
:1039F000F0BD0000000000D0FFFFFFFF121B0130F0
:103A0000F3D3F1E709277F1BFE406446A2B272435D
:103A1000801A00D20139220C7243130C1204821A4C
:103A200099410B007046043513370100F940A84056
:103A3000801900D30131002B02D1A2420AD2F0BD7D
:103A4000013000D30131121BFAD2013BF8D1A2425E
:103A500000D2F0BD013000D30131121BF7E7F0B501
:103A60001C0C00D080E00CB400251C0A04D11B0201
:103A7000160E3343120208351C0B04D11B01160F1E
:103A80003343120104359C0B04D19B00960F334342
:103A900092000235DC0B02D192185B4101351C000B
:103AA000971864410134464F7C66464C3C660E0CC8
:103AB000FFE7FFE7FFE7C0463C6F6643360C77033E
:103AC000BE4697B27743C01B00D20139C01B00D25B
:103AD00001399FB27743C91BC91B170C77437E047A
:103AE000FF0B801BB941CE086643360C0C2D33DB2F
:103AF000B644120B1F053A431B0B97B27743C01B0A
:103B000000D201399FB27743C91B170C77433E049B
:103B10003F0C801BB941860D8F023E436643292727
:103B20007F1BFE400C3D7746AF40BF1930BCA2B2B0
:103B3000ABB272437343801A9941220C7243130C47
:103B40001204801A994102000B000137001BA941A1
:103B5000F9D2781E0021F0BD0C277F1BFE4077466E
:103B60007F0BAF40FF19E0E700245D1C07D0144F26
:103B70007D663966FFE7FFE7FFE7FFE73C6F95B239
:103B80009EB265436643401BB141150C1E0C654354
:103B9000664336042F0C3E432D04401BB14199422D
:103BA00004D202000B0020000021F0BD01D19042A0
:103BB000F7D3801A994101349942F2D3F6E7000015
:103BC000000000D0FFFFFFFF48404140484018B4CC
:103BD000134B5B68019308BD18B4114B1B6801932C
:103BE00008BD94460F4A926F920805D2624618B4F7
:103BF0000B4BDB68019308BD0A4AF0B5146E556E95
:103C0000576F166F6246FFF7F2FF064A1466556655
:103C100057671667F0BD18B4014B9B68019308BD48
:103C200068070020000000D0FFB5504042405040DF
:103C300059404B40594000E0FFB5154F4C00640D12
:103C400003D0BC4204D10C0314D80020090D09058F
:103C50005C00640D03D0BC4204D11C030AD80022CE
:103C60001B0D1B0501264B4009D44B4003D58B424D
:103C700000D18242FFBD9942FCD19042FFBD0B436F
:103C8000DB1803431343F5D0C9434918FFBD0000B7
:103C9000FF07000000B5FFF7CFFF804100BDC04621
:103CA00000B5FFF7C9FF01D9002000BD012000BD0C
:103CB00000B5FFF7B9FF01D9002000BD012000BD0C
:103CC00000B5FFF7B1FF804100BD012040054A006B
:103CD000121804D85A00121801D800207047012089
:103CE00070470020704700000021002805D1704770
:103CF000C1174840401AFAD0C90713B5064B1B68D4
:103D000098470CBC441CA2401005120B0349091B28
:103D100009051943114310BD581300201F0400006A
:103D200010B54C00620D8023D218DB00D21A5B055F
:103D30007E2A10DD9E3A13DACC170903490819438D
:103D40005242D140640001341532202A05DAD040B5
:103D50000843604310BD002010BD0846604310BDFD
:103D6000C80FC018013810BD18B4024B5B6A01932C
:103D700008BD00006807002010B50148FEF784F96F
:103D8000A8850010132370B51D78012D11D035DDE5
:103D90001C48FFF78FFC1C4C01008022200000F023
:103DA000AFF8022D27D01948FFF77CFC184B18609C
:103DB00070BD184B144C23606360A360E360236103
:103DC0006361A361E36123626362A362E3622363CD
:103DD0006363A363E36323646364A364E3642365AD
:103DE0006365A365E36523666366A366E36623678D
:103DF0006367A367E367084BA364D4E7024C064BF1
:103E0000A364D0E753440000680700204C3300004F
:103E100058130020793D00101D3E001007B5604684
:103E200001880A0A0230DF2AFAD1C9B2820804D313
:103E3000028840880004104300E00068014A5050A6
:103E4000039007BD6807002051434343C9188C46BF
:103E5000110C83B24B4310B4040C614392B280B294
:103E6000504362431C041B0C001910BC594113043D
:103E7000120CC018514161447047000010B5014850
:103E8000FEF702F910870010132310B510481C78B4
:103E9000FFF710FC0100012C0AD003DD80220D4841
:103EA00000F02EF80C48FFF7FDFB0C4B186010BD1E
:103EB000084C5422200000F023F82300084A8033E5
:103EC0002168002900D122600434A342F8D1E9E737
:103ED000534600005C1300204C33000058130020B0
:103EE0007D3E001001480421014B1847B005002019
:103EF000C5360010014B1B6818470000B0050020B4
:103F0000014B5B6818470000B0050020030010B5A6
:103F1000080011001B68984710BDC046F0B5464622
:103F20004F46D646C0B5437D80460E001700002B95
:103F300046D0002A3FDD4B1E9946244B0125002424
:103F400000209A460DE04B461B5D0D3B5A42534103
:103F5000325DDBB20A2A0BD02B00013401359F42BF
:103F60001ADD002CEFD14346325D1B7D0A2AF3D1C6
:103F7000002BF1D1A04204DA4346211A1B68301805
:103F80009847434650461B68022198470134280051
:103F90002B0001359F42E4DC874204DD4346391A99
:103FA0001B6830189847F619013E33780D3B5A428A
:103FB000534142461375E0BCBA46B146A846F0BD2F
:103FC0000368110030009847F5E7C04624860010CA
:103FD000F0B5C6460C000968060000B5802906D079
:103FE0004B1C23606418267180BCB846F0BD0F4B93
:103FF0001D68002D16D0231D98460D4F02E02D6937
:10400000002D0FD02B68002BF9D03B68002B01D07E
:10401000AB42F4D1280041462268FFF77FFF2D69AB
:10402000002DEFD101230021DBE7C0462C13002037
:1040300030130020F0B5DE4657464E464546E0B503
:1040400085B017001C0006000D00FDF715FA0023CF
:10405000304A12184B41002B58DB2F4908008A4682
:1040600004F01AF901906B1C03D1300004F072F8CF
:104070000500002C25D1294B9846294B1C68002CA3
:1040800015D0002F20D1274F02E02469002C0ED03C
:104090002368002BF9D03B68002B01D0A342F4D158
:1040A00020002A003100C0472469002CF0D1019B78
:1040B000002B27D105B0F0BCBB46B246A946A046AE
:1040C000F0BD194B9846D8E7164B994602ABDF1D59
:1040D0000A239B4602E02469002CE8D02368002BC9
:1040E000F9D04B461B68002B01D0A342F3D12A0024
:1040F00031002000C0475B460122390020003B70A0
:10410000C047E8E7504604F09FF8D3E70122074B89
:104110005242A2E740420F00000600201D3F00105F
:104120002C130020301300200D3F0010FFFFFF7FF5
:10413000F0B5CE46474680B583B06B460600DD1D20
:104140002870FDF799F900231A4A12184B41002BE9
:104150002BDB19490800884604F09EF8174B81466E
:104160001C68002C14D0164F02E02469002C0FD0DC
:104170002368002BF9D03B68002B01D0A342F4D177
:10418000200001222900FFF7C9FE2469002CEFD18D
:104190004B46002B05D1300003B0C0BCB946B04639
:1041A000F0BD404604F050F8F5E70122054B5242BD
:1041B000CFE7C04640420F00000600202C1300202D
:1041C00030130020FFFFFF7F70B5040003F0C2FF33
:1041D00000230100050001222000FFF72BFF084B00
:1041E0001C68002C06D06368002B05D09847246912
:1041F000002CF8D1280070BD2469002CF3D1F9E718
:104200002C1300200A4A1368002B05D10CE01A0079
:104210001B691032002B07D09842F8D1002902D137
:1042200003691360016170470029FCD01060FAE750
:104230002C130020F0B5CE46474680B5A5B004004B
:104240000D00FDF719F900232A4A12184B41002BE3
:1042500049DB294E300004F01FF8002307000393C8
:1042600022002B00254803A9FFF7E6F9039B8046AF
:10427000002B14D1224B1C68002C06D06368002B45
:104280000BD098472469002CF8D1002F27D1404645
:1042900025B0C0BCB946B046F0BD2469ECE7184B68
:1042A0001D689946002D22D0164C02E02D69002D84
:1042B00011D02B68002BF9D02368002B01D09D4230
:1042C000F4D1039B28001A0004A90193FFF726FEEE
:1042D0002D69002DEDD14B4603951C68CCE73000CD
:1042E00003F0B2FFD3E70122074B5242B1E7039537
:1042F000CBE7C04640420F0000060020D13F00102F
:104300002C13002030130020FFFFFF7F0FB400B5F7
:1043100083B004A901C90191FFF78CFF03B008BC69
:1043200004B0184710B500F0C5F8012010BDC04614
:10433000F0B50D1E15DD0E4B0D271A680D4B4519F6
:10434000D31859424B410C495B005E5E2021047832
:10435000A64207D093691942FCD101301460A842EB
:10436000F5D1F0BD93691942FCD11760F2E7C04660
:10437000741400200080FCBF7014002030B50400CD
:104380000D1E26DD002010211B4B013C1A6893698D
:10439000194219D1013093691942FCD11368235491
:1043A0008542F4D1154B1B68002B0CD0502393632E
:1043B000516B183B34320B401100802252010A43EA
:1043C0001360002815D030BD0C4B1B68002BEDD1BD
:1043D000F7E70A4B1B68002B0BD050223821064B05
:1043E0001B689A635A6B3433114080225201134385
:1043F000196003204042E6E774140020C40900203D
:10440000064B10B51B68002B06D00021044A126829
:104410009163044A1068984710BDC046C409002043
:1044200074140020C80900201D4BF0B51A68C64658
:1044300098461C4B0E00D31859424B411A4F143367
:104440001C00050000B53B68002807D0002B11D0E8
:10445000164B3D601E6080BCB846F0BD002BF7D007
:10446000906300212000FCF70BF920001049FCF7B5
:1044700047FAEDE720000E49FCF724F9012120005E
:10448000FCF7FEF84346502238211B689A635A6BAA
:10449000343311408022520113431960D8E7C046DB
:1044A000741400200080FCBFC4090020C80900204B
:1044B000014400100C4B10B51B780C4B0C4C1B78B6
:1044C0000C4B022100202360FBF758FF0221012042
:1044D000FBF754FFE12120684902FDF7B9FA0121F9
:1044E0000548FFF78FFE10BDFCFE031000FF031010
:1044F0007414002000400340C0050020014B1860E8
:104500007047C0469C08002010B50A000100024810
:1045100003F01CF810BDC046000A0020014B1868CB
:104520007047C0469C08002010B582B0FFF7F6FF28
:10453000002807D003F0C4FA03000020002B12D09B
:1045400002B010BD684603F0F7FC114C694620002C
:1045500003F0F8FC002804D02000FFF7CFFF200074
:10456000E8E70238ECE7FFF7D9FF040003F0C4FAEC
:10457000074B9C4202D002204042E1E72368200022
:104580005B6B98470020FFF7B9FF02204042D7E756
:104590002006002010B5024800F00CF810BDC046FF
:1045A0005013002010B508220149FFF7A9FC10BDE7
:1045B0005013002030B5002589B0040009220021E5
:1045C00001A80095FFF796FC0922002105A8049593
:1045D000FFF790FC4B236A466846137004A90D222E
:1045E00003F02AFE1521082220006944FFF788FC09
:1045F00009B030BD10B50520FDF756FC030C642052
:1046000003495843FFF7A8F80338FDD210BDC04650
:104610009A3B00001C4B70B5C4580500002C1BD001
:104620000621615600290CDB0522A256531C05D039
:104630001649206803F0A0F806216156206802F0B0
:10464000D5FF07202056002810DA08202056002821
:1046500003DA00220C4BEA5070BD03F069F9082020
:10466000205603F04DF9FF232372F2E703F060F9BF
:104670000720205603F044F9FF230820E371205659
:104680000028E6DBE9E7C0464C08000084860010FD
:10469000F0B5C64600B5494E050082B03100484825
:1046A00002F0D2FF002809D13100464802F0CCFFC9
:1046B000002800D179E00622424801E00722404864
:1046C000414C424B0021EC50FF2320602372E371E8
:1046D000227102F09BFF40B2A071002868DB31001C
:1046E000206802F0E5FF3023012640B2421D6071D0
:1046F0001203C0011043364A024036489046016812
:1047000080228B43344992020B6003683000984347
:1047100008602068802301009B0138310B43802111
:1047200049041960062161564B005B18DB00C31871
:104730001F00C8373A6042467A601A00C027D0325C
:10474000BF021760254ADC331A6001231D22009640
:1047500003F07EF818202179FBF710FE01220021DA
:104760001820FBF723FE01211820FBF737FE062255
:10477000A256002053009B182268DB009446184A7A
:104780006344D8331A6003F0C3F8E071002003F0EB
:10479000BFF8E37940B220727F2B09D8002807DBED
:1047A000002002B080BCB846F0BD06204042F8E7C9
:1047B0002800FFF72FFF06204042F2E78486001012
:1047C0000000305000002050B80900204C080000C4
:1047D000FFFFFF9F78C0014078D0014018771C246C
:1047E00001E00000F0B54E464546DE465746E0B5CE
:1047F00087B0884616000293002900D1CCE05D4BBB
:10480000C45818202179FBF7B9FD1D202179FBF749
:10481000B5FD012200211D20FBF7C8FDD023802219
:104820001B0692049A61029B002B00D0CDE006216A
:104830000122615691468A402068036893430360D1
:104840000523E3569C464B005B18DB00C518CC35AE
:104850002A68D03392466246013217030397464FC7
:10486000C318BB4657465A4617403A00039F1743A2
:104870003A006746FF013A432A60802252011343FF
:10488000802212061A601A60802306255B041A0033
:1048900002F08CFF4A46655721682B1D9A409C46C2
:1048A00080239B010B431A6008229246AA4450467B
:1048B0004A4682401A60F300AA008A18013B13613D
:1048C0006B005B19DB002D48CB18D83318600298B9
:1048D00010612B4A1A601F22607902401A60072378
:1048E000E356A0209B464B465A469340254AC005B6
:1048F00083505B4680229F01234B5204F8180368C3
:104900001342FCD15B46214ADB02914200D163E1B4
:104910001F4AB60813405246D20313431D4A13439D
:10492000A022D205914642464F443A60624690002A
:1049300008187860BE60FB6001232A001800183256
:104940009040AB4088600200086803430B608B68AE
:104950001A42FCD006210122615620688A40036871
:1049600093430360002318220093013302F070FF89
:1049700015E1C0464C0800007F00FEFF20600000EB
:1049800040600000440400000C0000500000205073
:10499000FD7F00FF19004000002B00D11EE1914B6C
:1049A000C45818202179FBF7E9FC1D202179FBF779
:1049B000E5FC012200211D20FBF7F8FCD02380221A
:1049C0001B0692049A61029B9846062101226156B9
:1049D00091468A4020680368934303600523E356A9
:1049E0009C464B005B18DB00C518CC352A68D033D9
:1049F000924662460532170303977B4FC318BB46A6
:104A000057465A4617403A00039F17433A006746F5
:104A1000FF013A432A60802252011343802212068A
:104A20001A601A6080235B041A0002F0BFFE0621A0
:104A30004846615623680A1D0392904080229201E5
:104A40001A431060082082468A4448465546A840CA
:104A50001060F20088001818013A02614A005218EA
:104A6000D200624D9A18D8321560109D029FAD1B7E
:104A7000ED00013D05615E4810601F20657928400A
:104A800010600722A25694464A4660468240A02003
:104A9000C00581464D4657482A50624692019346CA
:104AA00004928022544D52045D4428681042FCD187
:104AB0000822A2564D4693460122584682404D4850
:104AC0002A505A4692019146059280224A4D52043C
:104AD0004D4428681042FCD1624648480297D202F1
:104AE000834200D174E00C20814689445546444FEE
:104AF000ED033A402A43434D049F1543039AAA46C7
:104B00009500A022D20594466744BC463A00474629
:104B100017605A1990466246474657606746B00884
:104B2000B86002005046F8605846354FC002384021
:104B30004F46FF033843344F10353843109F5D19FB
:104B4000BF08BA1AA027FF05B8469446059A029FE7
:104B500042441560BD19556065469560D0600122DC
:104B60008A40186802431A600722284B80219C461D
:104B7000A25649049201624413680B42FCD10822F8
:104B8000224B80219C46A25649049201624413683C
:104B90000B42FCD1380000213200FFF7ABF90621AF
:104BA000615623684A005218D2009B18184AD8331D
:104BB0001A60D02380221B0692045A61FFF71AFD67
:104BC000002007B0F0BCBB46B246A946A046F0BDE7
:104BD00003988A46814689E7AA4699E6052040421D
:104BE000EFE7C0464C0800007F00FEFF2060000099
:104BF00040600000440400000C0000500000205001
:104C0000FD7F00FF19004000290040001000005007
:104C100003A0000010B51720FBF750FCD024802320
:104C200024061B040022012163621720FBF7BEFB50
:104C30001820FBF743FC80235B0463621920A36107
:104C4000FBF73CFC80239B046362636110BDC0469C
:104C500070B5D024802524062D04A5611420FCF70E
:104C60001DFB6561FA20FCF719FB1820FBF726FCF9
:104C700080235B04A36270BD002300B585B003935D
:104C80000A4BD2021A40082309070A430849009335
:104C9000114302AB49BA042202910021FFF7A2FDA1
:104CA000002801D1039840BA05B000BD00F8FF0FFD
:104CB0000400004010B588B0012916D0154BD2026F
:104CC0001A40082309070A43134902AC0A43029217
:104CD0000093042223000021FFF784FD0123002814
:104CE00001D19B00E05808B010BD0A4BD2021A4017
:104CF0000A4B02AC1A4318230292009304222300A9
:104D00000021FFF76FFD0028EDD105239B00E0583F
:104D1000E9E7C04600F8FF0F04000040040000501F
:104D200010B588B0012916D0154BD2021A400823BD
:104D300009070A43134902AC0A4302920093042272
:104D400023000021FFF74EFD0123002801D19B0025
:104D5000E05808B010BD0A4BD2021A400A4B02AC10
:104D60001A43182302920093042223000021FFF724
:104D700039FD0028EDD105239B00E058E9E7C04646
:104D800000F8FF0F020000400200005010B588B08C
:104D9000012916D0154BD2021A40082309070A43ED
:104DA000134902AC0A43029200930422230000211B
:104DB000FFF718FD0123002801D19B00E05808B03F
:104DC00010BD0A4BD2021A400A4B02AC1A431823F8
:104DD00002920093042223000021FFF703FD002824
:104DE000EDD105239B00E058E9E7C04600F8FF0F2E
:104DF0000100004001000050F0B55BBAD6464F46B6
:104E00004646C0B5684C84B0D20203932240674B3B
:104E100009070A436649C458114349BA0291182048
:104E20002179FBF7ABFA1D202179FBF7A7FA0122C4
:104E300000211D20FBF7BAFAD023802206211B0691
:104E400092049A610122615690468A402068594E28
:104E5000036802AD934303600523E3569C464B0071
:104E60005B18DB00C718CC373A68D03391466246EE
:104E70000132120392464A46164052463243664673
:104E8000F60132433A608022C31852011343802254
:104E900012061A601A60802306265B041A0002F0CC
:104EA00085FC4146A6578023371DB94022689B01E7
:104EB0001343196008218C46B44441466046814042
:104EC00019603F23B10051180B6173009B19DB007F
:104ED0003948D318D8331860002008613749196061
:104EE0001F216079014019600723E356A0209946ED
:104EF000434649468B403249C00543504B469B01CF
:104F0000984680212F484904404403680B42FCD155
:104F10004B462D49DB028A4244D02C4902200B40EB
:104F20006146C9030B432A49BF000B43A021C905B1
:104F30004144D7190D604F608860CB600123310078
:104F4000180018318840B340906001001068034396
:104F5000136093680B42FCD0062101226156206841
:104F60008A400368934303600023182200930133AF
:104F700002F06EFC0621615623684A005218D200E6
:104F80009B18144AD8331A60D02380221B0692043F
:104F90005A61FFF72FFB002004B0E0BCBA46B146CF
:104FA000A846F0BDB446B8E700F8FF0F4C08000073
:104FB000040000C07F00FEFF206000004060000091
:104FC000440400000C00005000002050FD7F00FF52
:104FD0001900400003A00000F0B5D6464F464646F3
:104FE000C0B56E4CD20222400C0722436C4C84B0F8
:104FF000224302AD02926B60012909D1082469495C
:10500000445008394250684A8350684B8268C25005
:10501000674B684EC45818202179FBF7AFF91D2063
:105020002179FBF7ABF9012200211D20FBF7BEF926
:10503000D023802206211B0692049A610122615628
:1050400090468A4020680368934303600523E35633
:105050009C464B005B18DB00C718CC373A68D0334E
:10506000914662460132120392464A461640524623
:1050700032436646F60132433A608022C318520139
:105080001343802212061A601A60802306265B04EE
:105090001A0002F08BFB4146A6578023371DB9400A
:1050A00022689B011343196008218C46B444414691
:1050B0006046814019603F23B10051180B617300B5
:1050C0009B19DB003C48D318D833186000200861D6
:1050D0003A4919601F216079014019600723E3569E
:1050E000A0209946434649468B403549C005435068
:1050F0004B469B019846802132484904404403684E
:105100000B42FCD14B463049DB028A4244D02F4946
:1051100002200B406146C9030B432D49BF000B43DE
:10512000A021C9054144D7190D604F608860CB604C
:1051300001233100180018318840B340906001000D
:1051400010680343136093680B42FCD006210122D0
:10515000615620688A400368934303600023182245
:105160000093013302F074FB0621615623684A0064
:105170005218D2009B18174AD8331A60D0238022C5
:105180001B0692045A61FFF735FA002004B0E0BC18
:10519000BA46B146A846F0BDB446B8E700F8FF0FDE
:1051A000040000C058080000540800005C0800001B
:1051B0004C0800007F00FEFF2060000040600000FF
:1051C000440400000C00005000002050FD7F00FF50
:1051D0001900400003A00000F0B5D6464F464646F1
:1051E000C0B56E4CD20222400C0722436C4C84B0F6
:1051F000224302AD02926B60012909D1082469495A
:10520000445008394250684A8350684B8268C25003
:10521000674B684EC45818202179FBF7AFF81D2062
:105220002179FBF7ABF8012200211D20FBF7BEF826
:10523000D023802206211B0692049A610122615626
:1052400090468A4020680368934303600523E35631
:105250009C464B005B18DB00C718CC373A68D0334C
:10526000914662460132120392464A461640524621
:1052700032436646F60132433A608022C318520137
:105280001343802212061A601A60802306265B04EC
:105290001A0002F08BFA4146A6578023371DB94009
:1052A00022689B011343196008218C46B44441468F
:1052B0006046814019603F23B10051180B617300B3
:1052C0009B19DB003C48D318D833186000200861D4
:1052D0003A4919601F216079014019600723E3569C
:1052E000A0209946434649468B403549C005435066
:1052F0004B469B019846802132484904404403684C
:105300000B42FCD14B463049DB028A4244D02F4944
:1053100002200B406146C9030B432D49BF000B43DC
:10532000A021C9054144D7190D604F608860CB604A
:1053300001233100180018318840B340906001000B
:1053400010680343136093680B42FCD006210122CE
:10535000615620688A400368934303600023182243
:105360000093013302F074FA0621615623684A0063
:105370005218D2009B18174AD8331A60D0238022C3
:105380001B0692045A61FFF735F9002004B0E0BC17
:10539000BA46B146A846F0BDB446B8E700F8FF0FDC
:1053A000020000C058080000540800005C0800001B
:1053B0004C0800007F00FEFF2060000040600000FD
:1053C000440400000C00005000002050FD7F00FF4E
:1053D0001900400003A00000F0B5D6464F464646EF
:1053E000C0B56E4CD20222400C0722436C4C84B0F4
:1053F000224302AD02926B60012909D10824694958
:10540000445008394250684A8350684B8268C25001
:10541000674B684EC45818202179FAF7AFFF1D205A
:105420002179FAF7ABFF012200211D20FAF7BEFF18
:10543000D023802206211B0692049A610122615624
:1054400090468A4020680368934303600523E3562F
:105450009C464B005B18DB00C718CC373A68D0334A
:10546000914662460132120392464A46164052461F
:1054700032436646F60132433A608022C318520135
:105480001343802212061A601A60802306265B04EA
:105490001A0002F08BF94146A6578023371DB94008
:1054A00022689B011343196008218C46B44441468D
:1054B0006046814019603F23B10051180B617300B1
:1054C0009B19DB003C48D318D833186000200861D2
:1054D0003A4919601F216079014019600723E3569A
:1054E000A0209946434649468B403549C005435064
:1054F0004B469B019846802132484904404403684A
:105500000B42FCD14B463049DB028A4244D02F4942
:1055100002200B406146C9030B432D49BF000B43DA
:10552000A021C9054144D7190D604F608860CB6048
:1055300001233100180018318840B3409060010009
:1055400010680343136093680B42FCD006210122CC
:10555000615620688A400368934303600023182241
:105560000093013302F074F90621615623684A0062
:105570005218D2009B18174AD8331A60D0238022C1
:105580001B0692045A61FFF735F8002004B0E0BC16
:10559000BA46B146A846F0BDB446B8E700F8FF0FDA
:1055A000010000C058080000540800005C0800001A
:1055B0004C0800007F00FEFF2060000040600000FB
:1055C000440400000C00005000002050FD7F00FF4C
:1055D0001900400003A00000F0B5DE1C1D000323ED
:1055E000040083B09E43012924D004202133164FA8
:1055F000D2023A4009072A430A4380210430C905F0
:1056000080000A43201804364260002100960422DC
:105610002000E318FFF7E6F8061E0FD12100089BD3
:105620002831994203D02A001800FEF769FC3000A7
:1056300003B0F0BD002010361133D8E70100034855
:10564000FEF764FEF3E7C04600F8FF0F688600101F
:10565000F0B545465746DE464E46E0B58DB002AF42
:105660009846BA60DA1C03239A430500FA600229BF
:1056700025D028003B6D2830984248D04346090782
:105680001943BB68DA02294B1A40C02311431B0699
:10569000194369624246396DFEF732FC2900002346
:1056A000FA682800043224310093FFF79BF8BD46C6
:1056B0000BB0F0BCBB46B246A946A046F0BD1C4BA1
:1056C0001C4C9B4608239A4618339946796001E0A2
:1056D000013C16D35B463B615346009310230422E2
:1056E00000212800FB186E46FFF77CF8002800D147
:1056F00078694B46B5460342EAD07B681900002C16
:10570000B7D10D48FEF760FD06204042CFE7BB68E9
:105710000907DA02054B1A4043460B4313431A00AC
:10572000C0231B061A436A62B8E7C04600F8FF0FA1
:1057300004400040E70300005C880010836870B5F7
:10574000CC0B0500E403A3420BD063401A0E19D121
:10575000FF22120413420CD1FF221202134201D184
:10576000AC6070BD012128000A4A230AFFF734FE0D
:10577000F6E7230C01212800074AFFF72DFEAB684E
:105780006340E9E7230E0121044AFFF725FEAB68D9
:105790006340DDE70A0001000B0001000C0001007E
:1057A000F0B5C646033083089C4600B58E1E002B1C
:1057B0001DD00B0033435B0754D16346013B0A2BDA
:1057C00050D9C3089846424630000B00D2008F18CB
:1057D00030CB30C09F42FBD14346B4185F008A18DB
:1057E000BC4504D0538810881B0403432360080081
:1057F0000B888A1D5BBA73808B1C1B680A301BBA2E
:105800007360126812BAB260006800BAF060452B8B
:1058100003D0300080BCB846F0BD082AF9D10B0097
:105820000A000C00B232AE331B8810682E34256992
:105830001A18AA4222D83A31C918081881424AD205
:105840000027002504E0DD2A1CD0C91888422CD985
:105850004B780233CA189042F7D30A78302AF2D133
:105860000D00F2E7634632009800301893885488A0
:105870001B04234308C28242F8D1B8E701235B42EC
:10588000B360C6E78A1C90468A78002ADDD142467A
:105890005278502AD9D142469278F22AD5D142463E
:1058A000D278012AD1D10F00CFE7002D10D00623E6
:1058B0000422002F0AD0A28BD20601D50122134365
:1058C0008422B15CB1520432B354A2E71300F2E770
:1058D00002230022EDE70023EDE7C046F8B5CE46EF
:1058E00047460500894680B5002932D001230121B1
:1058F000204AFFF771FD0123012128001D4AFFF70F
:105900006BFD032303279846012640240BE001206A
:1059100002F056F9013C330001212800154AFFF737
:105920005BFD002C10D001212800124AFFF72EFA4F
:105930000028ECDB3B0003404345E8D1FF28E6D0DC
:10594000C0BCB946B046F8BD49460B48FEF7DEFC80
:10595000F6E700230121074AFFF73EFD002301215E
:105960002800044AFFF738FD002301279846002647
:10597000CBE7C0461F00010098860010F0B5D64660
:105980004F464646C0B5C37C05000F00924682B024
:10599000002B04D1006801F0B9FC002863D0280076
:1059A00001F0BAFCAB7C002B05D101212800FFF7E8
:1059B00095FF0123AB74EB7C002B61D0FA24A4008B
:1059C00002E0013C002C4ED0082200212800FFF705
:1059D00071F9431CF5D0C30543D5C02203035B0D09
:1059E000591ED200914200D3B1E0820700D5AEE04B
:1059F0002C0028340022022128000094FFF7ECFD3F
:105A0000002826D1298D6A8D002928D00123EB7426
:105A1000634B9C460B005340634500D09EE0D2434D
:105A200092B2914200D09FE00B2900D8A2E0237AE5
:105A3000AB730F2362791340022B17D90C2900D1C5
:105A4000A4E0012B58D0022B35D0002B45D00B20E1
:105A5000404202B0E0BCBA46B146A846F0BD002ABA
:105A6000D4D10023EB7401204042F2E7627A9446DD
:105A700066466A7BB21AD2B2142ADFD86E73DDE7AB
:105A8000042200212800FFF74BF983B29846454BCA
:105A9000000499461B88040C434502D08623234208
:105AA0004AD14346002B4CD14B4642461A80A306AE
:105AB00000D583E7D7E7102965D9E2790220A2183B
:105AC000D3789B000433D3181C1B0C1B91785246CF
:105AD000C9070C433C601360BBE71B295CD9E37921
